0610068ECLIPSE             GROUP MEDICAL SERV  200-300 HILLSDALE STREET      REGINA         SKS4S7J83063527638202009082020090788703                                                                                                                                                                                                                                                                                                                                                                                                                                                                                                                                                                                                                                           
20000042269PHARMASAVE #412               203 BROADWAY STREET                BOX 1030                           FORT QU'APPELLE                    SKS0G1S03063325717E0          Y                                                                                                                                                                                                                                                                                                                                                                                                                                                                                                                                                                                             
4S498204057818748202009072020090700E0000042269003283400328342020090702295016APO-ESCITALOPRAM 10MG TAB     APO-ESCITALOPRAM 10MG CO.     000000000000046046ERICKSON       CATHY       ERICKSON       ROY         19420720M49344262    344262   434438         10113001524000229000000000000001160000000000000000000000000000000002913001753000000000000000000001160000000000000000000000000000583002330000000000000000000000000000000000000000000 E2DMWH      00000038109001753000-00229281604FF TA 1220000000000000                   Y202106014                       75388     000000          00              DA  000000D2422 03  R84 003283449003283449R000460000460       KC         71E2                Y   0000008 G75388          71000000                            
60000030000233000002330                                                                                                                                                                                                                                                                                                                                                                                                                                                                                                                                                                                                                                                                                                                                                       
20000042303GALLOWAY'S PHARMACY LTD.      199 MAIN STREET                                                       CENTRAL BUTTE                      SKS0H0T03067962040E0          Y                                                                                                                                                                                                                                                                                                                                                                                                                                                                                                                                                                                             
4S498203991753531202009072020090700E0000042303000473600047362020090702378558PMS-ROSUVASTATIN 20MG TAB     PMS-ROSUVASTATIN 20MG CO.     020000000000034033MCGILLIVRAY    KATHRYN     MCGILLIVRAY    JAMES       19480303M49344262    344262   160366         1011 000613000184000000000000001160000000000000000000000000000000001957000796000000000000000000001125000000000000000000000000000384001537000000000000000000000000000000000000000000 E2OTDGDMWH  00000023412000796000-00183240608FF TA 1220000000000000                   Y202106014                       0038419   000002          02              DA  000000D1600 03  R40 000473632000473632N000340000340       TC 4699999977E2OTDJ            Y   0000008 G0038419        77000000                            
60000030000153700001537                                                                                                                                                                                                                                                                                                                                                                                                                                                                                                                                                                                                                                                                                                                                                       
20000042499WALMART PHARMACY #3076        3939 ROCHDALE BLVD                                                    REGINA                             SKS4X4P73065434569E1WALMART   Y                                                                                                                                                                                                                                                                                                                                                                                                                                                                                                                                                                                             
4S498204138847133202009072020090700E0000042499003724900372492020090702356767SANDOZ VALSARTAN 160MG TAB    SANDOZ-VALSARTAN 160MG CO.    040000000000030030BOEHMER        EDNA        BOEHMER        WILFRED     19411215M49344262    344262   208294         1011 000793000000000000000000001140000000000000000000000000000000001933000793000000000000000000001140000000000000000000000000000387001546000000000000000000000000000000000000000000 E2DMWH      00000026433000793000000000243208FF TA 1220000000000000                   Y202106014                       76165     000004          04              DA  000000D3172 03  R44 003724996003724996R000300000300       KC         71E2                Y   0000008 G76165          71000000                            
4S498204139847134202009072020090700E0000042499003724900372492020090702438275AURO-METFORMIN 500MG TAB      AURO-METFORMIN 500MG CO.      000000000000180090BOEHMER        EDNA        BOEHMER        WILFRED     19411215M49344262    344262   208294         1011 000615000000000000000000001140000000000000000000000000000000001755000615000000000000000000001140000000000000000000000000000351001404000000000000000000000000000000000000000000 E2DMWH      00000003417000615000000000682004FF TA 1220000000000000                   Y202106014                       76165     000000          00              DA  000000D3172 03  R60 003724997003724997R001800001800       KC         71E2                Y   0000008 G76165          71000000                            
4S498204140847135202009072020090700E0000042499003724900372492020090702155907ADALAT XL 30MG TAB            ADALAT XL 30MG CO.            040000000000030030BOEHMER        EDNA        BOEHMER        WILFRED     19411215M49344262    344262   208294         1011 002168000000000000000000001140000000000000000000000000000000003308002168000000000000000000001140000000000000000000000000000500002000000000000000000000000000000000000000000000 E2DMWH      00000072267002168000000000242808FF TA 1220000000000000                   Y202106014                       76165     000004          04              DA  000808D3172 0361R46 003724998003724998R000300000300       KC         71E2                Y   0000008 B76165          71000000                            
4S498204141847136202009072020090700E0000042499003724900372492020090702382644SUNPHARMA ROSUVASTATIN 5MG TABSUNPHARMA ROSUVASTATIN 5MG CO.040000000000030030BOEHMER        EDNA        BOEHMER        WILFRED     19411215M49344262    344262   208294         1011 000533000000000000000000001140000000000000000000000000000000001673000533000000000000000000001140000000000000000000000000000335001338000000000000000000000000000000000000000000 E2DMWH      00000017767000533000000000240608FF TA 1220000000000000                   Y202106014                       76165     000004          04              DA  000000D3172 03  R40 003724999003724999R000300000300       KC         71E2                Y   0000008 G76165          71000000                            
60000060000628800006288                                                                                                                                                                                                                                                                                                                                                                                                                                                                                                                                                                                                                                                                                                                                                       
20000042521MOOSE JAW CO-OP PHARMACY      500 - 1ST AVE N.W.                                                    MOOSE JAW                          SKS6H3M53066920988E0          Y                                                                                                                                                                                                                                                                                                                                                                                                                                                                                                                                                                                             
4S498203935829734202009072020090710E0000042521000947400094742020090700653241TEVA-LENOLTEC NO 2 TAB        TEVA-LENOLTEC NO 2 CO.        010000000000060015FORMAN         WALTER      FORMAN         BONNIE      19520715F49310138    310138   323619         10113000541000162000000000000001160000000000000000000000000000000001863000000000000000000000000000000000000000000000000000000000000000000000000000000000000000000000000000000000000 E2CJHBCK    00000000000000000000000000280808N  TA 1220000000000000                   N000000004                       98        000001          01              DA  000000D4691 03  R08 000947418000947418R000600000000       KC         71E2C4HB                000000  G98             71000000                            
4S498203962829745202009072020090700E0000042521003099000309902020090702388707CANDESARTAN 8MG TAB           CANDESARTAN 8MG CO.           030000000000060030ZADOROZNY      ROSSLYN     ZADOROZNY      HENRY       19410423M49344262    344262   349883         10113001458000219000000000000001160000000000000000000000000000000002837001677000000000000000000001160000000000000000000000000000500002000000000000000000000000000000000000000000000 E2DMWH      00000027950001677000-00219243208FF TA 1220000000000000                   Y202106014S498203970829753       78460     000003          03              DA  000337D4691 03  R44 003099078003099078R000600000600       KC         71E2                Y   0000008 G78460          71000000                            
4S498203963829746202009072020090700E0000042521003099000309902020090702378531PMS-ROSUVASTATIN 10MG TAB     PMS-ROSUVASTATIN 10MG CO.     010000000000034034ZADOROZNY      ROSSLYN     ZADOROZNY      HENRY       19410423M49344262    344262   349883         10113000490000147000000000000001160000000000000000000000000000000001797000637000000000000000000001160000000000000000000000000000359001438000000000000000000000000000000000000000000 E2DMWH      00000018735000637000-00147240608FF TA 1220000000000000                   Y202106014S498203968829751       78460     000001          01              DA  000000D4691 03  R40 003099079003099079R000340000340       KC         71E2                Y   0000008 G78460          71000000                            
4S498203964829747202009072020090700E0000042521003099000309902020090702340208SANDOZ TAMSULOSIN 0.4MG CR TABSANDOZ-TAMSULOSIN CR 0.4MG CO.020000000000034034ZADOROZNY      ROSSLYN     ZADOROZNY      HENRY       19410423M49344262    344262   349883         10113000543000163000000000000001160000000000000000000000000000000001866000706000000000000000000001160000000000000000000000000000373001493000000000000000000000000000000000000000000 E2DMWH      00000020765000706000-00163121604FF TA 1220000000000000                   Y202106014S498203966829749       78460     000002          02              DA  000000D4691 03  R76 003099080003099080R000340000340       KC         71E2                Y   0000008 G78460          71000000                            
4S498203965829748202009072020090700E0000042521003099000309902020090702155907ADALAT XL 30MG TAB            ADALAT XL 30MG CO.            030000000000068034ZADOROZNY      ROSSLYN     ZADOROZNY      HENRY       19410423M49344262    344262   349883         10113004471000447000000000000001160000000000000000000000000000000006078004918000000000000000000001160000000000000000000000000000500002001000000000000000000000000000000000000000000 E2DMWH      00000072324004918000-00447242808FF TA 1220000000000000                   Y202106014S498203974829755       78460     000003          03              DA  003577D4691 0361R46 003099077003099077R000680000680       KC         71E2                Y   0000008 B78460          71000000                            
5S498203966829749202009072020090700E0000042521003099000309902020090702340208SANDOZ TAMSULOSIN 0.4MG CR TABSANDOZ-TAMSULOSIN CR 0.4MG CO.020000000000034034ZADOROZNY      ROSSLYN     ZADOROZNY      HENRY       19410423M49344262    344262   349883         10113000543000163000000000000001160000000000000000000000000000000001866000706000000000000000000001160000000000000000000000000000373001493000000000000000000000000000000000000000000               000020765000706000-00163121604FF TA 1220000000000000                   Y202106014S498203964829747       78460     000002          02              DA  000000D4691 03  R76 003099080003099080R000340000340       KC         71                  Y   000000  G78460          71000000                            
4S498203967829750202009072020090700E0000042521003099000309902020090702340208SANDOZ TAMSULOSIN 0.4MG CR TABSANDOZ-TAMSULOSIN CR 0.4MG CO.000000000000102102ZADOROZNY      ROSSLYN     ZADOROZNY      HENRY       19410423M49344262    344262   349883         10113001630000163000000000000001160000000000000000000000000000000002953001793000000000000000000001160000000000000000000000000000500002000000000000000000000000000000000000000000000 E2DMWH      00000017578001793000-00163121604FF TA 1220000000000000                   Y202106014                       78460     000000          00              DA  000453D4691 03  R76 003099081003099081R001020001020       KC         71E2                Y   0000008 G78460          71000000                            
5S498203968829751202009072020090700E0000042521003099000309902020090702378531PMS-ROSUVASTATIN 10MG TAB     PMS-ROSUVASTATIN 10MG CO.     010000000000034034ZADOROZNY      ROSSLYN     ZADOROZNY      HENRY       19410423M49344262    344262   349883         10113000490000147000000000000001160000000000000000000000000000000001797000637000000000000000000001160000000000000000000000000000359001438000000000000000000000000000000000000000000               000018735000637000-00147240608FF TA 1220000000000000                   Y202106014S498203963829746       78460     000001          01              DA  000000D4691 03  R40 003099079003099079R000340000340       KC         71                  Y   000000  G78460          71000000                            
4S498203969829752202009072020090700E0000042521003099000309902020090702378531PMS-ROSUVASTATIN 10MG TAB     PMS-ROSUVASTATIN 10MG CO.     000000000000068068ZADOROZNY      ROSSLYN     ZADOROZNY      HENRY       19410423M49344262    344262   349883         10113000981000147000000000000001160000000000000000000000000000000002288001128000000000000000000001160000000000000000000000000000458001830000000000000000000000000000000000000000000 E2DMWH      00000016588001128000-00147240608FF TA 1220000000000000                   Y202106014                       78460     000000          00              DA  000000D4691 03  R40 003099082003099082R000680000680       KC         71E2                Y   0000008 G78460          71000000                            
5S498203970829753202009072020090700E0000042521003099000309902020090702388707CANDESARTAN 8MG TAB           CANDESARTAN 8MG CO.           030000000000060030ZADOROZNY      ROSSLYN     ZADOROZNY      HENRY       19410423M49344262    344262   349883         10113001458000219000000000000001160000000000000000000000000000000002837001677000000000000000000001160000000000000000000000000000500002000000000000000000000000000000000000000000000               000027950001677000-00219243208FF TA 1220000000000000                   Y202106014S498203962829745       78460     000003          03              DA  000337D4691 03  R44 003099078003099078R000600000600       KC         71                  Y   000000  G78460          71000000                            
4S498203972829754202009072020090700E0000042521003099000309902020090702326965SANDOZ CANDESARTAN 8MG TAB    SANDOZ-CANDESARTAN 8MG CO.    000000000000180090ZADOROZNY      ROSSLYN     ZADOROZNY      HENRY       19410423M49344262    344262   349883         10113004373000437000000000000001160000000000000000000000000000000005970004810000000000000000000001160000000000000000000000000001194004776000000000000000000000000000000000000000000 E2DMWH      00000026722004810000-00437243208FF TA 1220000000000000                   Y202106014                       78460     000000          00              DA  000000D4691 03  R44 003099083003099083R001800001800       KC         71E2                Y   0000008 G78460          71000000                            
5S498203974829755202009072020090700E0000042521003099000309902020090702155907ADALAT XL 30MG TAB            ADALAT XL 30MG CO.            030000000000068034ZADOROZNY      ROSSLYN     ZADOROZNY      HENRY       19410423M49344262    344262   349883         10113004471000447000000000000001160000000000000000000000000000000006078004918000000000000000000001160000000000000000000000000000500002001000000000000000000000000000000000000000000               000072324004918000-00447242808FF TA 1220000000000000                   Y202106014S498203965829748       78460     000003          03              DA  003577D4691 0361R46 003099077003099077R000680000680       KC         71                  Y   000000  B78460          71000000                            
4S498203975829756202009072020090700E0000042521003099000309902020090702155907ADALAT XL 30MG TAB            ADALAT XL 30MG CO.            000000000000204102ZADOROZNY      ROSSLYN     ZADOROZNY      HENRY       19410423M49344262    344262   349883         10113013413001341000000000000001160000000000000000000000000000000015914014754000000000000000000001160000000000000000000000000000501002003000000000000000000000000000000000000000000 E2DMWH      00000072324014754000-01341242808FF TA 1220000000000000                   Y202106014                       78460     000000          00              DA  013410D4691 0361R46 003099084003099084R002040002040       KC         71E2                Y   0000008 B78460          71000000                            
4S498203976829758202009072020090700E0000042521003099000309902020090702247012APO-SIMVASTATIN 10MG TAB      APO-SIMVASTATINE 10MG CO.     010000000000090090ZADOROZNY      ROSSLYN     ZADOROZNY      ROSSLYN     19421222F49344262    344262   349883         10003001940000194000000000000001160000000000000000000000000000000003294001620000000000000000000000880000000000000000000000000000000002500000000000000000000000000000000000000000000 E3FK        00000023711001620000000320240608FF TA 1220000000000000                   Y202106014                       78460     000001          01              DB  000794D4691 03  R40 003099085003099085R000900000900       KC         71E3DJ              Y   000000  G78460          71000000                            
4S498204039829774202009072020090700E0000042521003099100309912020090702423235JAMP-EZETIMIBE 10MG TAB       JAMP-EZETIMIBE 10MG CO.       000000000000030030HOWE           LOIS        HOWE           R. DALE     19480528M49344262    344262   724796         10113000579000174000000000000001160000000000000000000000000000000001913000752000000000000000000001160000000000000000000000000000176000703000000000000000000000000000000000000000000 E2DGDMWH    00000025067000752000-00173240605FF TA 1220000000000000                   Y202106014                       D4691     000000          00              DA  001033D4691 03  R40 003099104003099104N000300000300       KC         76E2DJ              E   0000008 GD4691          76000000                            
4S498204040829775202009072020090700E0000042521003099100309912020090702378523PMS-ROSUVASTATIN 5MG TAB      PMS-ROSUVASTATIN 5MG CO.      000000000000030030HOWE           LOIS        HOWE           R. DALE     19480528M49344262    344262   724796         10113000410000123000000000000001160000000000000000000000000000000001693000533000000000000000000001160000000000000000000000000000156000623000000000000000000000000000000000000000000 E2DMWH      00000017767000533000-00123240608FF TA 1220000000000000                   Y202106014                       D4691     000000          00              DA  000914D4691 03  R40 003099105003099105N000300000300       KC         76E2                Y   0000008 GD4691          76000000                            
4S498204059829776202009072020090710E0000042521003099100309912020090700585092DEPO-PROVERA 150MG/ML INJ     DEPO-PROVERA 150MG/ML INJ.    030000000000001100PETERS         DUSTIN      LEGLER         DESIRAE     20010706F49423960    423960   891849         10323003307000331000000000000001160000000000000000000000000000000004798000000000000000000000000000000000000000000000000000000000000000000000000000000000000000000000000000000000000 E2CJ        00000000000000000000000000683200F  IN 1220000000000000                   N000000004                       78460     000003          03              DA  000000D4691 0306R12 003099108003099108N000010000000       KC         71E2C4                  000000  B78460          71000000                            
4S498204185829800202009072020090700E0000042521003099100309912020090702284383SANDOZ-AMLODIPINE 5MG TAB     SANDOZ-AMLODIPINE 5MG CO.     010000000000017034COLLINS        JUDITH      COLLINS        JUDITH      19481220F49310138    310138   308581         10003000243000073000000000000001160000000000000000000000000000000001476000316000000000000000000001160000000000000000000000400000000000353000000000000000000000000000000000000000000 E2DMWH      00000018588000316000-00073242808FF TA 1220000000000000                   Y202106054                       2732      000001          01              DA  000723D4691 03  R44 003099143003099143R000170000170       KC         71E2                Y   0000008 G2732           710000006027                        
4S498204186829801202009072020090700E0000042521003099100309912020090702256134APO-BISOPROLOL 5MG TAB        APO-BISOPROLOL 5MG CO.        010000000000017034COLLINS        JUDITH      COLLINS        JUDITH      19481220F49310138    310138   308581         10003000130000039000000000000001160000000000000000000000000000000001329000168000000000000000000001160000000000000000000000400000000000277000000000000000000000000000000000000000000 E2DGDMWH    00000009882000168000-00038242400FF TA 1220000000000000                   Y202106054                       2732      000001          01              DA  000651D4691 03  R46 003099144003099144R000170000170       KC         71E2DJ              Y   0000008 G2732           710000006027                        
4S498204187829802202009072020090700E0000042521003099100309912020090702378531PMS-ROSUVASTATIN 10MG TAB     PMS-ROSUVASTATIN 10MG CO.     010000000000034034COLLINS        JUDITH      COLLINS        JUDITH      19481220F49310138    310138   308581         10003000490000147000000000000001160000000000000000000000000000000001797000637000000000000000000001160000000000000000000000400000000000516000000000000000000000000000000000000000000 E2DMWH      00000018735000637000-00147240608FF TA 1220000000000000                   Y202106054                       2732      000001          01              DA  000881D4691 03  R40 003099145003099145R000340000340       KC         71E2                Y   0000008 G2732           710000006027                        
4S498204188829803202009072020090700E0000042521003099100309912020090702435845CANDESARTAN 32MG TAB          CANDESARTAN 32MG CO.          010000000000034034COLLINS        JUDITH      COLLINS        JUDITH      19481220F49310138    310138   308581         10003000826000124000000000000001160000000000000000000000000000000002110000950000000000000000000001160000000000000000000000400000000000676000000000000000000000000000000000000000000 E2DMWH      00000027941000950000-00124243208FF TA 1220000000000000                   Y202106054                       2732      000001          01              DA  001034D4691 03  R44 003099146003099146R000340000340       KC         71E2                Y   0000008 G2732           710000006027                        
60000230001625700030121                                                                                                                                                                                                                                                                                                                                                                                                                                                                                                                                                                                                                                                                                                                                                       
20000042533LAKE COUNTRY CO-OP PHARMACY #1777-801-15 STREET EAST                                                PRINCE ALBERT                      SKS6V3R73067646464E0          Y                                                                                                                                                                                                                                                                                                                                                                                                                                                                                                                                                                                             
4S498204214755447202009072020090700E0000042533002230700223072020090702443937JARDIANCE 10MG TAB            JARDIANCE 10MG CO.            090000000000034034HARKNESS       CAMERON     HARKNESS       CAMERON     19420826M49310138    310138   386805         10003010061001006000000000000001160000000000000000000000000000000012227011067000000000000000000001160000000000000000000000400000000002100000000000000000000000000000000000000000000 E2DMWH      00000325500011067000-01006682018FF TA 1220000000000000                   Y202010094                       2548      000009          09              DA  009727D4430 03  R60 002230732002230732R000340000340       KC         71E2                E   0000008  2548           710000006027                        
4S498204238755466202009072020090700E0000042533002230700223072020090702155907ADALAT XL 30MG TAB            ADALAT XL 30MG CO.            040000000000056028HAWRISH        JUNE        HAWRISH        JUNE        19540424F49344262    344262   259164         10003003681000368000000000000001160000000000000000000000000000000005209004049000000000000000000001160000000000000000000000000000313001250000000000000000000000000000000000000000000 E2DMWH      00000072304004049000-00368242808FF TA 1220000000000000                   Y202106014                       2942      000004          04              DA  003646D4430 0361R46 002230742002230742R000560000560       KC         71E2                Y   0000008 B2942           71000000                            
4S498204239755468202009072020090700E0000042533002230700223072020090702321653COVERSYL PLUS HD 8MG/2.5MG TABCOVERSYL PLUS HD 8MG/2.5MG CO.040000000000028028HAWRISH        JUNE        HAWRISH        JUNE        19540424F49344262    344262   259164         10003003528000353000000000000001160000000000000000000000000000000005041002217000000000000000000001160000000000000000000000000000250001002000000000000000000000000000000000000000000 DFE2DMWH    00000079179002217000001311243204FF TA 1220000000000000                   Y202106014                       2942      000004          04              DA  002125D4430 03  R44 002230743002230743R000280000280       KC         71D8E2              Y   0000008 B2942           71000000                            
4S498204240755471202009072020090700E0000042533002230700223072020090702378566PMS-ROSUVASTATIN 40MG TAB     PMS-ROSUVASTATIN 40MG CO.     040000000000028028HAWRISH        JUNE        HAWRISH        JUNE        19540424F49344262    344262   259164         10003000594000178000000000000001160000000000000000000000000000000001932000771000000000000000000001160000000000000000000000000000116000463000000000000000000000000000000000000000000 E2DGDMWH    00000027536000771000-00177240608FF TA 1220000000000000                   Y202106014                       2942      000004          04              DA  001352D4430 03  R40 002230744002230744R000280000280       KC         71E2DJ              Y   0000008 G2942           71000000                            
4S498204245755474202009072020090700E0000042533002230700223072020090702244727APO-MEDROXY 5MG TAB           APO-MEDROXY 5MG CO.           040000000000028028HAWRISH        JUNE        HAWRISH        JUNE        19540424F49344262    344262   259164         10003000246000074000000000000001160000000000000000000000000000000001480000319000000000000000000001160000000000000000000000000000089000354000000000000000000000000000000000000000000 E2DGDMWH    00000011393000319000-00073683200FF TA 1220000000000000                   Y202106014                       2942      000004          04              DA  001036D4430 03  R04 002230745002230745R000280000280       KC         71E2DJ              Y   0000008 G2942           71000000                            
4S498204246755477202009072020090700E0000042533002230700223072020090702314185SANDOZ-RABEPRAZOLE EC 20MG TABSANDOZ-RABEPRAZOLE EC 20MG CO.040000000000028028HAWRISH        JUNE        HAWRISH        JUNE        19540424F49344262    344262   259164         10003000399000120000000000000001160000000000000000000000000000000001679000519000000000000000000001160000000000000000000000000000101000403000000000000000000000000000000000000000000 E2DMWH      00000018536000519000-00120562836FF TA 1220000000000000                   Y202106014                       2942      000004          04              DA  001175D4430 03  R74 002230746002230746R000280000280       KC         71E2                Y   0000008 G2942           71000000                            
4S498204248755480202009072020090700E0000042533002230700223072020090702356821JAMP-METOPROLOL-L 50MG TAB    JAMP-METOPROLOL-L 50MG CO.    040000000000056028HAWRISH        JUNE        HAWRISH        JUNE        19540424F49344262    344262   259164         10003000372000112000000000000001160000000000000000000000000000000001644000484000000000000000000001160000000000000000000000000000099000394000000000000000000000000000000000000000000 E2DMWH      00000008643000484000-00112242400FF TA 1220000000000000                   Y202106014                       2942      000004          04              DA  001151D4430 03  R46 002230747002230747R000560000560       KC         71E2                Y   0000008 G2942           71000000                            
60000090000596600005966                                                                                                                                                                                                                                                                                                                                                                                                                                                                                                                                                                                                                                                                                                                                                       
20000042537WALMART PHARMACY #3073        800 - 15TH STREET E                                                   PRINCE ALBERT                      SKS6V8E33067649773E1WALMART   Y                                                                                                                                                                                                                                                                                                                                                                                                                                                                                                                                                                                             
4S498204107602654202009072020090700E0000042537003516000351602020090700598461PMS-SULFASALAZINE 500MG TAB   PMS-SULFASALAZINE 500MG CO.   070000000000030030LAI            SANDY       LAI            SANDY       19630411F49344262    344262   1018878        1000 000984000000000000000000001140000000000000000000000000000000002124000984000000000000000000001140000000000000000000000000000425001699000000000000000000000000000000000000000000 E2DMWH      00000032800000984000000000081220FF TA 1220000000000000                   Y202106014                       78641     000007          07              DA  000000D0740 03  R74 003516043003516043R000300000300       KC         71E2                Y   0000008 G78641          71000000                            
60000030000169900001699                                                                                                                                                                                                                                                                                                                                                                                                                                                                                                                                                                                                                                                                                                                                                       
20000042552WALMART PHARMACY #3084        1706 PRESTON AVENUE                                                   SASKATOON                          SKS7N4Y13063730852E1WALMART   Y                                                                                                                                                                                                                                                                                                                                                                                                                                                                                                                                                                                             
4S498204262442376202009072020090700E0000042552003403300340332020090702326957SANDOZ CANDESARTAN 4MG TAB    SANDOZ-CANDESARTAN 4MG CO.    010000000000030030FONTAINE       SUZANNE     FONTAINE       SUZANNE     19590316F49344262    344262   884387         1000 000706000000000000000000001140000000000000000000000000000000001846000706000000000000000000001140000000000000000000000000000369001477000000000000000000000000000000000000000000 E2DMWH      00000023533000706000000000243208FF TA 1220000000000000                   Y202106014                       101643    000001          01              DA  000000D2633 03  R44 003403319003403319R000300000300       KC         71E2                Y   0000008 G101643         71000000                            
60000030000147700001477                                                                                                                                                                                                                                                                                                                                                                                                                                                                                                                                                                                                                                                                                                                                                       
20000042573SASKATOON CO-OP PHARMACY      WESTVIEW                           1624-33RD ST W                     SASKATOON                          SKS7L0X33069333872E0          Y                                                                                                                                                                                                                                                                                                                                                                                                                                                                                                                                                                                             
4S498203905952204202009072020090700E0000042573002282700228272020090700592277APO-NAPROXEN 500MG TAB        APO-NAPROXEN 500MG CO.        010000000000060030BUTT           KATHLEEN    BUTT           KATHLEEN    19470623F49344262    344262   17897          10003001348000202000000000000001160000000000000000000000000000000002710001550000000000000000000001160000000000000000000000000000500002000000000000000000000000000000000000000000000 E2DMWH      00000025833001550000-00202280804FF TA 1220000000000000                   Y202106014                       73450     000001          01              DA  000210D3102 03  R24 002282769002282769R000600000600       KC         71E2                Y   0000008 G73450          71000000                            
4S498204028952214202009072020090700E0000042573002282700228272020090702172135SYNTHROID 175MCG TAB          SYNTHROID 175MCG CO.          000000000000070070HERBACK        DENA        HERBACK        DENA        19800413F49378       378      891321         10003000878000132000000000000001160000000000000000000000000000000002170001010000000000000000000001160000000000000000000000000000000000152000000000000000000000000000000000000000000 E2DMWH      00000014429001010000-00132683604FF TA 1220000000000000                   Y202106014                       76118     000000          00              DA  002018D3102 03  R02 002282795002282795R000700000700       KC         71E2                Y   0000008  76118          71000000                            
4S498204029952215202009072020090700E0000042573002282700228272020090702246820SANDOZ-METFORMIN FC 500MG TAB SANDOZ-METFORMIN FC 500MG CO. 000000000000140070HERBACK        DENA        HERBACK        DENA        19800413F49378       378      891321         10003000368000110000000000000001160000000000000000000000000000000001638000478000000000000000000001160000000000000000000000000000000000115000000000000000000000000000000000000000000 E2DMWH      00000003414000478000-00110682004FF TA 1220000000000000                   Y202106014                       76118     000000          00              DA  001523D3102 03  R60 002282796002282796R001400001400       KC         71E2                Y   0000008 G76118          71000000                            
60000050000226700002267                                                                                                                                                                                                                                                                                                                                                                                                                                                                                                                                                                                                                                                                                                                                                       
20000042577LOBLAW PHARMACY #1536         411 CONFEDERATION DRIVE                                               SASKATOON                          SKS7L5C33063844700E1WESTFAIR  Y                                                                                                                                                                                                                                                                                                                                                                                                                                                                                                                                                                                             
4S498204064677579202009072020090700E0000042577009902400990242020090702405636ROSUVASTATIN 10MG TAB         ROSUVASTATIN 10MG CO.         010000000000030030TIMMERMAN      JUDY        TIMMERMAN      JOHN        19460317M49344262    344262   868369         10113000433000130000000000000001160000000000000000000000000000000001723000562000000000000000000001160000000000000000000000000000310001240000000000000000000000000000000000000000000 E2DGDMWH    00000018733000562000-00129240608FF TA 1220000000000000                   Y202106014                       2485      000001          01              DA  000172D2963 03  R40 009902448009902448R000300000300       KC         71E2DJ              Y   0000008 G2485           71000000                            
4S498204067677580202009072020090700E0000042577009902400990242020090702353253GABAPENTIN 300MG CAP          GABAPENTIN 300MG CAP.         020000000000060030TIMMERMAN      JUDY        TIMMERMAN      JOHN        19460317M49344262    344262   868369         10113000647000097000000000000001160000000000000000000000000000000001904000744000000000000000000001160000000000000000000000000000343001371000000000000000000000000000000000000000000 E2DMWH      00000012400000744000-00097281292FF CA 1220000000000000                   Y202106014                       2485      000002          02              DA  000190D2963 03  R20 009902449009902449N000600000600       KC         71E2                Y   0000008 G2485           71000000                            
60000040000261100002611                                                                                                                                                                                                                                                                                                                                                                                                                                                                                                                                                                                                                                                                                                                                                       
20000042591DISCOVERY CO-OP PHARMACY      9800 TERRITORIAL DR                                                   NORTH BATTLEFORD                   SKS9A3W63064467230E0          Y                                                                                                                                                                                                                                                                                                                                                                                                                                                                                                                                                                                             
4S498204010066894202009072020090700E0000042591002317300231732020090702328496SANDOZ-IRBESARTAN 300MG TAB   SANDOZ-IRBESARTAN 300MG CO.   010000000000034034THOMPSON       HOWARD      THOMPSON       HOWARD      19490903M49282368    282368   111502         10003000826000124000000000000001160000000000000000000000000000000002110000950000000000000000000001160000000000000000000000000001160000950000000000000000000000000000000000000000000 E2DMWH      00000027941000950000-00124243208FF TA 1220000000000000                   Y202107014                       1116      000001          01              DA  000000D3263 03  R44 002317339002317339R000340000340       KC         71E2                Y   0000008 G1116           71000000                            
4S498204012066895202009072020090700E0000042591002317300231732020090702402785APO-ALLOPURINOL 300MG TAB     APO-ALLOPURINOL 300MG CO.     010000000000034034THOMPSON       HOWARD      THOMPSON       HOWARD      19490903M49282368    282368   111502         10003000769000115000000000000001160000000000000000000000000000000002044000884000000000000000000001160000000000000000000000000001160000884000000000000000000000000000000000000000000 E2DMWH      00000026000000884000-00115921600FF TA 1220000000000000                   Y202107014                       1116      000001          01              DA  000000D3263 03  R78 002317340002317340R000340000340       KC         71E2                Y   0000008 G1116           71000000                            
4S498204016066896202009072020090700E0000042591002317300231732020090702321149MYLAN-NIFEDIPINE ER 60MG TAB  MYLAN-NIFEDIPINE ER 60MG CO.  010000000000034034THOMPSON       HOWARD      THOMPSON       HOWARD      19490903M49282368    282368   111502         10003003379000338000000000000001160000000000000000000000000000000004877003717000000000000000000001160000000000000000000000000001160001340000000000000000000000000000000000000000000 E2DMWH      00000109324003717000-00338242808FF TA 1220000000000000                   Y202107014                       1116      000001          01              DA  002377D3263 0361R46 002317341002317341N000340000340       KC         71E2                Y   0000008 G1116           71000000                            
60000050000317400003174                                                                                                                                                                                                                                                                                                                                                                                                                                                                                                                                                                                                                                                                                                                                                       
20000042598PHARMASAVE #406               BOX 1680                           390 CENTRAL AVE NORTH              SWIFT CURRENT                      SKS9H0L43067737261E0          Y                                                                                                                                                                                                                                                                                                                                                                                                                                                                                                                                                                                             
4S498203731291882202009072020090710E0000042598009982400998242020090700908835METHADONE PDR                 METHADONE PD.                 010000000000210007HOFER          JEREMIAH    HOFER          JEREMIAH    19700724M49343421    343421   343641         10003000030000009000000000000001160000000000000000975000000000000001199000000000000000000000000000000000000000000000000000000000000000000000000000000000000000000000000000000000000 E2PP        00000000000000000000000000960000XN PD 1220000000000000                   N000000004                       74486     000001          01              DA  001891D3571 0370X99 009982493009982493R002100000000       KC         71E275              N   000000   74486          71000000                            
4S498203742291887202009072020090700E0000042598000228600022862020090702449471TARO-RAMIPRIL HCTZ 10/25MG    TARO-RAMIPRIL HCTZ 10/25MG    040000000000030030LINDSAY        BARBARA     LINDSAY        BARBARA     19590712F49344262    344262   810568         10003000842000126000000000000001160000000000000000000000000000000002128000968000000000000000000001160000000000000000000000000000426001702000000000000000000000000000000000000000000 E2DMWH      00000032267000968000-00126243204FF TA 1220000000000000                   Y202106014S498203768291913       9908      000004          04              DA  000000D3571 03  R44 000228682000228682R000300000300       KC         81E2                Y   0000008 G9908           81000000                            
4S498203747291888202009072020090700E0000042598000228600022862020090702213214ELTROXIN 150MCG TAB           ELTROXIN 150MCG CO.           000000000000025100LINDSAY        BARBARA     LINDSAY        BARBARA     19590712F49344262    344262   810568         10003000121000036000000000000001160000000000000000000000000000000001317000157000000000000000000001160000000000000000000000000000263001054000000000000000000000000000000000000000000 E2DMWH      00000006280000157000-00036683604FF TA 1220000000000000                   Y202106014S498204286292103       D3571     000000          00              DA  000000D3571 03  R02 000228686000228686N000250000250       KC         76E2                Y   0000008 BD3571          76000000                            
4S498203749291891202009072020090700E0000042598000228600022862020090702403137APO-AMITRIPTYLINE 10MG TAB    APO-AMITRIPTYLINE 10MG CO.    050000000000060030LINDSAY        BARBARA     LINDSAY        BARBARA     19590712F49344262    344262   810568         10003000424000127000000000000001160000000000000000000000000000000001711000551000000000000000000001160000000000000000000000000000342001369000000000000000000000000000000000000000000 E2DMWH      00000009183000551000-00127281604FF TA 1220000000000000                   Y202106014S498203755291898       9908      000005          05              DA  000000D3571 03  R84 000228689000228689R000600000600       KC         81E2                Y   0000008 G9908           81000000                            
5S498203755291898202009072020090700E0000042598000228600022862020090702403137APO-AMITRIPTYLINE 10MG TAB    APO-AMITRIPTYLINE 10MG CO.    050000000000060030LINDSAY        BARBARA     LINDSAY        BARBARA     19590712F49344262    344262   810568         10003000424000127000000000000001160000000000000000000000000000000001711000551000000000000000000001160000000000000000000000000000342001369000000000000000000000000000000000000000000               000009183000551000-00127281604FF TA 1220000000000000                   Y202106014S498203749291891       9908      000005          05              DA  000000D3571 03  R84 000228689000228689R000600000600       KC         81                  Y   000000  G9908           81000000                            
4S498203756291900202009072020090700E0000042598000228600022862020090700654523PMS-AMITRIPTYLINE 10MG TAB    PMS-AMITRIPTYLINE 10MG CO.    050000000000060030LINDSAY        BARBARA     LINDSAY        BARBARA     19590712F49344262    344262   810568         10003000425000127000000000000001160000000000000000000000000000000001712000552000000000000000000001160000000000000000000000000000342001370000000000000000000000000000000000000000000 E2DMWH      00000009200000552000-00127281604FF TA 1220000000000000                   Y202106014                       9908      000005          05              DA  000000D3571 03  R84 000228697000228697R000600000600       KC         81E2                Y   0000008 G9908           81000000                            
5S498203768291913202009072020090700E0000042598000228600022862020090702449471TARO-RAMIPRIL HCTZ 10/25MG    TARO-RAMIPRIL HCTZ 10/25MG    040000000000030030LINDSAY        BARBARA     LINDSAY        BARBARA     19590712F49344262    344262   810568         10003000842000126000000000000001160000000000000000000000000000000002128000968000000000000000000001160000000000000000000000000000426001702000000000000000000000000000000000000000000               000032267000968000-00126243204FF TA 1220000000000000                   Y202106014S498203742291887       9908      000004          04              DA  000000D3571 03  R44 000228682000228682R000300000300       KC         81                  Y   000000  G9908           81000000                            
4S498203769291914202009072020090700E0000042598000228700022872020090702342170PMS-RAMIPRIL-HCTZ 10/25MG TAB PMS-RAMIPRIL-HCTZ 10/25MG CO. 040000000000030030LINDSAY        BARBARA     LINDSAY        BARBARA     19590712F49344262    344262   810568         10003000421000126000000000000001160000000000000000000000000000000001707000547000000000000000000001160000000000000000000000000000341001366000000000000000000000000000000000000000000 E2DMWH      00000018233000547000-00126243204FF TA 1220000000000000                   Y202106014                       9908      000004          04              DA  000000D3571 03  R44 000228718000228718R000300000300       KC         81E2                Y   0000008 G9908           81000000                            
4S498204198292037202009072020090700E0000042598000228800022882020090702314185SANDOZ-RABEPRAZOLE EC 20MG TABSANDOZ-RABEPRAZOLE EC 20MG CO.020000000000068034WIPF           SARAH       WIPF           SARAH       19731025F49519795    519795   309550         10003000969000145000000000000001160000000000000000000000000000000002274001114000000000000000000001160000000000000000000000000000000000728000000000000000000000000000000000000000000 E2DMWH      00000016382001114000-00145562836FF TA 1220000000000000                   Y202101014                       9999      000002          02              DA  001546D3571 03  R74 000228873000228873R000680000680       KC         71E2                Y   0000008 G9999           71000000                            
5S498204286292103202009072020090700E0000042598000228600022862020090702213214ELTROXIN 150MCG TAB           ELTROXIN 150MCG CO.           000000000000025100LINDSAY        BARBARA     LINDSAY        BARBARA     19590712F49344262    344262   810568         10003000121000036000000000000001160000000000000000000000000000000001317000157000000000000000000001160000000000000000000000000000263001054000000000000000000000000000000000000000000               000006280000157000-00036683604FF TA 1220000000000000                   Y202106014S498203747291888       D3571     000000          00              DA  000000D3571 03  R02 000228686000228686N000250000250       KC         76                  Y   000000  BD3571          76000000                            
4S498204287292104202009072020090700E0000042598000229000022902020090702172089SYNTHROID 75MCG TAB           SYNTHROID 75MCG CO.           000000000000025100LINDSAY        BARBARA     LINDSAY        BARBARA     19590712F49344262    344262   810568         10003000262000079000000000000001160000000000000000000000000000000001501000341000000000000000000001160000000000000000000000000000300001201000000000000000000000000000000000000000000 E2DMWH      00000013640000341000-00079683604FF TA 1220000000000000                   Y202106014                       D4305     000000          00              DA  000000D4305 03  R02 000229002000229002N000250000250       KC         76E2                Y   0000008  D4305          76000000                            
60000130000466500012915                                                                                                                                                                                                                                                                                                                                                                                                                                                                                                                                                                                                                                                                                                                                                       
20000042600PIONEER CO-OP DRUGS #4        1150 CENTRAL AVENUE NORTH                                             SWIFT CURRENT                      SKS9H0G13067788821E0          Y                                                                                                                                                                                                                                                                                                                                                                                                                                                                                                                                                                                             
4S498204176996810202009072020090700E0000042600000965100096512020090700653276TEVA-LENOLTEC NO 3 TAB        TEVA-LENOLTEC NO 3 CO.        000000000000045005BATHER         DIANE       BATHER         DIANE       19550820F49344262    344262   62970          10003000426000128000000000000001160000000000000000000000000000000001714000554000000000000000000001125000000000000000000000000000154000617000000000000000000000000000000000000000000 E2OTDMWH    00000012311000554000-00128280808NN TA 1220000000000000                   Y202106014                       0000075698000000          00              DA  000908D2170 03  R08 000965180000965180N000450000450       KC         71E2OT              Y   0000008 G0000075698     71000000                            
60000030000061700000617                                                                                                                                                                                                                                                                                                                                                                                                                                                                                                                                                                                                                                                                                                                                                       
20000052947LOBLAW PHARMACY #1535         2901 - 8TH STREET E.                                                  SASKATOON                          SKS7H0V43069561631E1WESTFAIR  Y                                                                                                                                                                                                                                                                                                                                                                                                                                                                                                                                                                                             
4S498203971024215202009072020090700E0000052947004369300436932020090702443058DUTASTERIDE 0.5MG CAP         DUTASTERIDE 0.5MG CAP.        040000000000034034CHAD           RANDALL     CHAD           RANDALL     19470124M49282368    282368   319393         10003001096000164000000000000001160000000000000000000000000000000002420001260000000000000000000001160000000000000000000000000001160001260000000000000000000000000000000000000000000 E2DMWH      00000037059001260000-00164920800FF CA 1220000000000000                   Y202107014                       760       000004          04              DA  000000D2880 03  R76 004369314004369314R000340000340       KC         71E2                Y   0000008 G760            71000000                            
60000030000126000001260                                                                                                                                                                                                                                                                                                                                                                                                                                                                                                                                                                                                                                                                                                                                                       
20000054801LOBLAW PHARMACY #1571         5031 - 44 STREET                                                      LLOYDMINSTER                       ABT9V0A67808718041E1WESTFAIR  Y                                                                                                                                                                                                                                                                                                                                                                                                                                                                                                                                                                                             
4S498204020795350202009072020090700E0000054801007778000777802020090702351676LEFLUNOMIDE 20MG TAB          LEFLUNOMIDE 20MG CO.          010000000000090090JACK           WALLACE     JACK           SHIRLEY     19530705F495963      5963     802819         10113025200002000000000000000001140000000000000000000000000000000028340020975000000000000000000001140000000000000000000000000000000000000000000000000000000000000000000000000000000 DFE2DMPVLK  00000233056020975000004225923600FF TA 1220000000000000                   Y000000004                       15395     000001          01              DA  02584010059 03  R31 007778022007778022R000900000900       KC         81D8E2LK            E   0000008 G15395          81000000                            
4S498204027795352202009072020090700E0000054801007778000777802020090702424991MINT-HYDROXYCHLOROQUINE 200MG MINT-HYDROXYCHLOROQUINE 200MG 030000000000135090JACK           WALLACE     JACK           SHIRLEY     19530705F495963      5963     802819         10113002267000227000000000000001140000000000000000000000000000000003634002345000000000000000000001140000000000000000000000000000470001881000000000000000000000000000000000000000000 E2DGDMPV    00000017370002345000-00078083008FF TA 1220000000000000                   Y202011174                       15395     000003          03              DA  00113410059 03  R16 007778023007778023N001350001350       KC         81E2DJ              Y   0000008 G15395          81000000                            
4S498204118795377202009072020090700E0000054801007778000777802020090702247162CRESTOR 10MG TAB              CRESTOR 10MG CO.              000000000000045090JACK           WALLACE     JACK           WALLACE     19491231M495963      5963     802819         10001006669000667000000000000001140000000000000000000000000000000008476006805000000000000000000001140000000000000000000000000001589006356000000000000000000000000000000000000000000 E2DEDGDMPV  00000151222006805000-00136240608FF TA 1220000000000000                   Y202011174                       023355    000000          00              DA  00000010059 03  R40 007778042007778042R000450000450       KC         71E2DJ              Y   0000008 B023355         71000000                            
4S498204119795379202009072020090700E0000054801007778000777802020090702427117TAMSULOSIN CR 0.4MG TAB       TAMSULOSIN CR 0.4MG CO.       000000000000180090JACK           WALLACE     JACK           WALLACE     19491231M495963      5963     802819         10003002916000292000000000000001140000000000000000000000000000000004348002976000000000000000000001140000000000000000000000000000823003293000000000000000000000000000000000000000000 E2DGDMPV    00000016533002976000-00060121604FF TA 1220000000000000                   Y202011174                       023355    000000          00              DA  00000010059 03  R76 007778043007778043R001800001800       KC         71E2DJ              Y   0000008 G023355         71000000                            
60000060001153000011530                                                                                                                                                                                                                                                                                                                                                                                                                                                                                                                                                                                                                                                                                                                                                       
20000080377DRUGSTORE PHARMACY #1581      591 15TH STREET E.                                                    PRINCE ALBERT                      SKS6V1G33069538135E1WESTFAIR  Y                                                                                                                                                                                                                                                                                                                                                                                                                                                                                                                                                                                             
4S498204075931474202009072020090700E0000080377007564400756442020090702343037LAMOTRIGINE 150MG TAB         LAMOTRIGINE 150MG CO.         010000000000060030STOCHMANSKI    CARL        STOCHMANSKI    CARL        19500702M49310138    310138   398390         10003002624000262000000000000001160000000000000000000000000000000004046002886000000000000000000001160000000000000000000000400000000002028000000000000000000000000000000000000000000 E2DMWH      00000048100002886000-00262281292FF TA 1220000000000000                   Y202104074                       106389    000001          01              DA  001618D2117 03  R20 007564439007564439R000600000600       KC         71E2                Y   0000008 G106389         710000006027                        
4S498204159931484202009072020090710E0000080377007564400756442020090402244522NEXIUM 40MG DR TAB            NEXIUM 40MG DR DR CO.         030000000000034034MCKINNEY       TRACY       WADDELL        TRACY       19640421F49310138    310138   739511         10003008782000878000000000000001160000000000000000000000000000000010820000000000000000000000000000000000000000000000000000000000000000000000000000000000000000000000000000000000000 E2KT        00000000000000000000000000562836FF TA 1220000000000000                   N000000004                       1305      000003          03              DA  000000D2117 0365R74 007564450007564450R000340000000       KC         71E286              E   000000  B1305           710000006027                        
5S498204207931493202009072020090700E0000080377007562600756262020083002343010LAMOTRIGINE 25MG TAB          LAMOTRIGINE 25MG CO.          000000000000180090DANSEREAU      MARCIA      DANSEREAU      MARCIA      19531007F49344262    344262   561686         10003001339000201000000000000001160000000000000000000000000000000002700001540000000000000000000001160000000000000000000000000000103000410000000000000000000000000000000000000000000               000008556001540000-00201281292FF TA 1220000000000000                   Y202106014S498186553930182       74076     000000          00              DA  002187D4740 03  R20 007562604007562604R001800001800       KC         71                  Y   000000  G74076          71000000                            
5S498204208931495202009072020090700E0000080377007562600756262020083002466147PANTOPRAZOLE T 40MG TAB       PANTOPRAZOLE T 40MG CO.       000000000000090090DANSEREAU      MARCIA      DANSEREAU      MARCIA      19531007F49344262    344262   561686         10003001797000180000000000000001160000000000000000000000000000000003137001977000000000000000000001160000000000000000000000000000119000477000000000000000000000000000000000000000000               000021967001977000-00180562836FF TA 1220000000000000                   Y202106014S498186551930180       74076     000000          00              DA  002541D4740 03  R74 007562603007562603R000900000900       KC         71                  Y   000000  G74076          71000000                            
5S498204209931497202009072020090700E0000080377007562600756262020083000441775APO-TRIAZIDE 50/25MG TAB      APO-TRIAZIDE 50/25MG CO.      000000000000090090DANSEREAU      MARCIA      DANSEREAU      MARCIA      19531007F49344262    344262   561686         10003000583000175000000000000001160000000000000000000000000000000001918000758000000000000000000001160000000000000000000000000000073000291000000000000000000000000000000000000000000               000008422000758000-00175402816FF TA 1220000000000000                   Y202106014S498186550930178       74076     000000          00              DA  001554D4740 03  R70 007562602007562602R000900000900       KC         71                  Y   000000  G74076          71000000                            
5S498204210931499202009072020090700E0000080377007562600756262020083002430126ESCITALOPRAM 20MG TAB         ESCITALOPRAM 20MG CO.         000000000000045090DANSEREAU      MARCIA      DANSEREAU      MARCIA      19531007F49344262    344262   561686         10003001587000159000000000000001160000000000000000000000000000000002906001746000000000000000000001160000000000000000000000000000110000442000000000000000000000000000000000000000000               000038800001746000-00159281604FF TA 1220000000000000                   Y202106014S498186548930176       74076     000000          00              DA  002354D4740 03  R84 007562601007562601R000450000450       KC         71                  Y   000000  G74076          71000000                            
5S498204211931501202009072020090700E0000080377007562600756262020083002343037LAMOTRIGINE 150MG TAB         LAMOTRIGINE 150MG CO.         000000000000180090DANSEREAU      MARCIA      DANSEREAU      MARCIA      19531007F49344262    344262   561686         10003007873000787000000000000001160000000000000000000000000000000009820008660000000000000000000001160000000000000000000000000000373001493000000000000000000000000000000000000000000               000048111008660000-00787281292FF TA 1220000000000000                   Y202106014S498186560930184       74076     000000          00              DA  007954D4740 03  R20 007562605007562605R001800001800       KC         71                  Y   000000  G74076          71000000                            
6000009-000108500005141                                                                                                                                                                                                                                                                                                                                                                                                                                                                                                                                                                                                                                                                                                                                                       
20000080391WALMART PHARMACY #3083        225 BETTS AVE                                                         SASKATOON                          SKS7M1L23063823338E1WALMART   Y                                                                                                                                                                                                                                                                                                                                                                                                                                                                                                                                                                                             
4S498204092027319202009072020090700E0000080391003920700392072020090700326844APO-HYDRO 25MG TAB            APO-HYDRO 25MG CO.            000000000000102102HOFFMANN       IRMA        HOFFMANN       IRMA        19500817F49344262    344262   501266         1000 000222000000000000000000001140000000000000000000000000000000001362000222000000000000000000001140000000000000000000000000000272001090000000000000000000000000000000000000000000 E2DMWH      00000002176000222000000000402820FF TA 1220000000000000                   Y202106014                       104384    000000          00              DA  000000D4244 03  R70 003920746003920746R001020001020       KC         71E2                Y   0000008 G104384         71000000                            
4S498204137027348202009072020090700E0000080391003920700392072020090700312770APO-PREDNISONE 5MG TAB        APO-PREDNISONE 5MG CO.        000000000000045030GOODWIN        SUSAN       GOODWIN        WILLIAM     19611120M49344262    344262   788398         1011 000250000000000000000000001140000000000000000000000000000000001390000250000000000000000000001140000000000000000000000000000217000867000000000000000000000000000000000000000000 E2DMWH      00000005556000250000000000680400FF TA 1220000000000000                   Y202106014                       D4244     000000          00              DA  000306D4244 03  R52 003920770003920770N000450000450       KC         76E2                Y   0000008 GD4244          76000000                            
4S498204216027370202009072020090700E0000080391003920700392072020090702438275AURO-METFORMIN 500MG TAB      AURO-METFORMIN 500MG CO.      010000000000500100GOODWIN        SUSAN       GOODWIN        WILLIAM     19611120M49344262    344262   788398         1011 001512000000000000000000001140000000000000000000000000000000002652001512000000000000000000001140000000000000000000000000000414001655000000000000000000000000000000000000000000 E2DMWH      00000003024001512000000000682004FF TA 1220000000000000                   Y202106014                       712       000001          01              DA  000583D4244 03  R60 003920774003920774N005000005000       KC         71E2                Y   0000008 G712            71000000                            
4S498204217027371202009072020090700E0000080391003920700392072020090702317087PMS-IRBESARTAN 300MG TAB      PMS-IRBESARTAN 300MG CO.      040000000000034034GOODWIN        SUSAN       GOODWIN        WILLIAM     19611120M49344262    344262   788398         1011 000950000000000000000000001140000000000000000000000000000000002090000950000000000000000000001140000000000000000000000000000326001304000000000000000000000000000000000000000000 E2DMWH      00000027941000950000000000243208FF TA 1220000000000000                   Y202106014                       712       000004          04              DA  000460D4244 03  R44 003920775003920775N000340000340       KC         71E2                Y   0000008 G712            71000000                            
4S498204218027372202009072020090700E0000080391003920700392072020090702321211AURO-GABAPENTIN 300MG CAP     AURO-GABAPENTIN 300MG CAP.    050000000000120030GOODWIN        SUSAN       GOODWIN        WILLIAM     19611120M49344262    344262   788398         1011 001488000000000000000000001140000000000000000000000000000000002628001488000000000000000000001140000000000000000000000000000410001640000000000000000000000000000000000000000000 E2DMWH      00000012400001488000000000281292FF CA 1220000000000000                   Y202106014                       712       000005          05              DA  000578D4244 03  R20 003920776003920776N001200001200       KC         71E2                Y   0000008 G712            71000000                            
4S498204219027373202009072020090700E0000080391003920700392072020090702303922JANUVIA 100MG TAB             JANUVIA 100MG CO.             040000000000034034GOODWIN        SUSAN       GOODWIN        WILLIAM     19611120M49344262    344262   788398         1011 012967000000000000000000001140000000000000000000000000000000014107012967000000000000000000001140000000000000000000000000002201008802000000000000000000000000000000000000000000 E2DMWH      00000381382012967000000000682005FF TA 1220000000000000                   Y202106014                       712       000004          04              DADV003104D4244 03  R60 003920777003920777N000340000340       KC         71E2                E   0000008  712            71000000                            
4S498204220027374202009072020090710E0000080391003920700392072020090797799140ONETOUCH DELICAPLUS 30G LANCETONETOUCH DELICAPLUS 30G LANCET110000000000100030GOODWIN        SUSAN       GOODWIN        WILLIAM     19611120M49344262    344262   788398         1011 000720000000000000000000000077000000000000000000000000000000000797000000000000000000000000000000000000000000000000000000000000000000000000000000000000000000000000000000000000 E2CO        00000000000000000000000000940100UDRLA 1220000000000000                   N000000004                       712       000011          11              DA  000175D4244 0382Q01 003920778003920778N001000000000       KC         71E2D1              Y   000000   712            71000000                            
4S498204221027375202009072020090700E0000080391003920700392072020090702267993TARO-ATENOLOL 100MG TAB       TARO-ATENOLOL 100MG CO.       040000000000034034GOODWIN        SUSAN       GOODWIN        WILLIAM     19611120M49344262    344262   788398         1011 000758000000000000000000001140000000000000000000000000000000001898000758000000000000000000001140000000000000000000000000000296001184000000000000000000000000000000000000000000 E2DMWH      00000022294000758000000000242400FF TA 1220000000000000                   Y202106014                       712       000004          04              DA  000418D4244 03  R44 003920779003920779N000340000340       KC         71E2                Y   0000008 G712            71000000                            
60000100001654200016542                                                                                                                                                                                                                                                                                                                                                                                                                                                                                                                                                                                                                                                                                                                                                       
20000080413WALMART PHARMACY #3077        4500 GORDON RD.                                                       REGINA                             SKS4W0B73065842260E1WALMART   Y                                                                                                                                                                                                                                                                                                                                                                                                                                                                                                                                                                                             
4S498203785700044202009072020090700E0000080413003646000364602020090702245058APO-OMEPRAZOLE 20MG CAP       APO-OMEPRAZOLE 20MG CAP.      000000000000030030JANIS          PENNY       JANIS          PENNY       19550530F49344262    344262   212526         1000 000841000000000000000000001140000000000000000000000000000000001981000841000000000000000000001140000000000000000000000000000396001585000000000000000000000000000000000000000000 E2DMERESWH  00000028033000841000000000562836FF CA 1220000000000000                   Y202106014                       107020    000000          00              DA  000000D3459 03  R74 003646001003646001R000300000300       KC         71E2ENEO            Y   0000008 G107020         71000000                            
4S498204253700107202009072020090700E0000080413003646100364612020090702240907APO-PAROXETINE 10MG TAB       APO-PAROXETINE 10MG CO.       020000000000102034HILL           SANDRA      HILL           SANDRA      19451103F49344262    344262   205001         1000 003640000000000000000000001140000000000000000000000000000000004780003640000000000000000000001140000000000000000000000000000956003824000000000000000000000000000000000000000000 E2DMWH      00000035686003640000000000281604FF TA 1220000000000000                   Y202106014                       74269     000002          02              DA  000000D3459 03  R84 003646108003646108R001020001020       KC         71E2                Y   0000008 G74269          71000000                            
60000040000540900005409                                                                                                                                                                                                                                                                                                                                                                                                                                                                                                                                                                                                                                                                                                                                                       
20000080426WALMART PHARMACY #3058        601 CARLTON TRAIL                                                     NORTH BATTLEFORD                   SKS9A4A93064458108E1WALMART   Y                                                                                                                                                                                                                                                                                                                                                                                                                                                                                                                                                                                             
4S498203851454890202009072020090700E0000080426003503200350322020090702378612XARELTO 20MG TAB              XARELTO 20MG CO.              010000000000034034DAY            ERNA        DAY            CHARLES     19431025M49310138    310138   378911         1011 011647000000000000000000001140000000000000000000000000000000012787011647000000000000000000001140000000000000000000000400000000012387000000000000000000000000000000000000000000 E2DMWH      00000342559011647000000000201204FF TA 1220000000000000                   Y202106124                       75229     000001          01              DA  000000D4543 03  R48 003503275003503275R000340000340       KC         71E2                Y   0000008  75229          71000000                            
4S498203853454891202009072020090700E0000080426003503200350322020090702392240PMS-LOSARTAN-HCTZ 100/25MG    PMS-LOSARTAN-HCTZ 100/25MG    040000000000030030OSTER          LOUISE      OSTER          LOUISE      19511027F49344262    344262   309043         1000 001157000000000000000000001140000000000000000000000000000000002297001157000000000000000000001140000000000000000000000000000459001838000000000000000000000000000000000000000000 E2DMWH      00000038567001157000000000243208FF TA 1220000000000000                   Y202106014                       106721    000004          04              DA  000000D4543 03  R44 003503276003503276R000300000300       KC         71E2                Y   0000008 G106721         71000000                            
4S498203861454892202009072020090700E0000080426003503200350322020090702313715TARO-ATORVASTATIN 20MG TAB    TARO-ATORVASTATIN 20MG CO.    040000000000030030OSTER          LOUISE      OSTER          LOUISE      19511027F49344262    344262   309043         1000 000800000000000000000000001140000000000000000000000000000000001940000800000000000000000000001140000000000000000000000000000388001552000000000000000000000000000000000000000000 E2DMWH      00000026667000800000000000240608FF TA 1220000000000000                   Y202106014                       106721    000004          04              DA  000000D4543 03  R40 003503277003503277R000300000300       KC         71E2                Y   0000008 G106721         71000000                            
4S498203877454893202009072020090700E0000080426003503200350322020090702242539TEVA-DILTAZEM CD 180MG CAP    TEVA-DILTAZEM CD 180MG CAP.   020000000000030030JAMIESON       JANICE      JAMIESON       CLIFFORD    19530131M49344262    344262   715361         1011 001772000000000000000000001140000000000000000000000000000000002912001772000000000000000000001140000000000000000000000000000582002330000000000000000000000000000000000000000000 E2DMWH      00000059067001772000000000242892FF CA 1220000000000000                   Y202106014                       76407     000002          02              DA  000000D4543 0361R46 003503281003503281R000300000300       KC         71E2                Y   0000008 G76407          71000000                            
4S498203926454902202009072020090700E0000080426003503200350322020090702292920APO-PANTOPRAZOLE 40MG TAB     APO-PANTOPRAZOLE 40MG CO.     010000000000030030JAMIESON       JANICE      JAMIESON       CLIFFORD    19530131M49344262    344262   715361         1011 000741000000000000000000001140000000000000000000000000000000001881000741000000000000000000001140000000000000000000000000000376001505000000000000000000000000000000000000000000 E2DMWH      00000024700000741000000000562836FF TA 1220000000000000                   Y202106014                       76407     000001          01              DA  000000D4543 03  R74 003503297003503297R000300000300       KC         71E2                Y   0000008 G76407          71000000                            
4S498203937454912202009072020090700E0000080426003503300350332020090702455676PMS-NITROFURANTOIN 100MG CAP  PMS-NITROFURANTOIN 100MG CAP. 010000000000030030JAMIESON       JANICE      JAMIESON       JANICE      19541021F49344262    344262   715361         1000 002100000000000000000000001140000000000000000000000000000000003240002100000000000000000000001140000000000000000000000000000648002592000000000000000000000000000000000000000000 E2DMWH      00000070000002100000000000083600FF CA 1220000000000000                   Y202106014                       2072      000001          01              DA  000000D4543 03  R16 003503303003503303R000300000300       KC         71E2                Y   0000008 G2072           71000000                            
4S498203938454913202009072020090700E0000080426003503300350332020090702313707TARO-ATORVASTATIN 10MG TAB    TARO-ATORVASTATIN 10MG CO.    010000000000034034JAMIESON       JANICE      JAMIESON       JANICE      19541021F49344262    344262   715361         1000 000726000000000000000000001140000000000000000000000000000000001866000726000000000000000000001140000000000000000000000000000373001493000000000000000000000000000000000000000000 E2DMWH      00000021353000726000000000240608FF TA 1220000000000000                   Y202106014                       2072      000001          01              DA  000000D4543 03  R40 003503304003503304R000340000340       KC         71E2                Y   0000008 G2072           71000000                            
4S498203939454914202009072020090700E0000080426003503300350332020090702240606PMS-ZOPICLONE 7.5MG TAB       PMS-ZOPICLONE 7.5MG CO.       000000000000030030JAMIESON       JANICE      JAMIESON       JANICE      19541021F49344262    344262   715361         1000 001722000000000000000000001140000000000000000000000000000000002862001722000000000000000000001140000000000000000000000000000572002290000000000000000000000000000000000000000000 E2DMWH      00000057400001722000000000282492FF TA 1220000000000000                   Y202106014                       2072      000000          00              DA  000000D4543 03  R88 003503305003503305R000300000300       KC         71E2                N   0000008 G2072           71000000                            
60000100002598700025987                                                                                                                                                                                                                                                                                                                                                                                                                                                                                                                                                                                                                                                                                                                                                       
20000080427WALMART PHARMACY #3030        413 KENSINGTON AVENUE              BOX 609                            ESTEVAN                            SKS4A2A53066347296E1WALMART   Y                                                                                                                                                                                                                                                                                                                                                                                                                                                                                                                                                                                             
4S498204173470283202009072020090700E0000080427003396900339692020090702236876ALPHAGAN 0.2% OP SOL          ALPHAGAN 0.2% SOL. OP         110000000000005030BURGESS        JAMES       BURGESS        JAMES       19431221M49282368    282368   100369         10001002088000000000000000000001140000000000000000000000000000000003228002088000000000000000000001140000000000000000000000000001140001195000000000000000000000000000000000000000000 E2DEDMWH    00000417600002088000000000524004FF OP 1220000000000000                   Y202107014                       2619      000011          11              DA  000893D4143 0345R82 003396930003396930R000050000050       KC         71E2                Y   0000008 B2619           71000000                            
4S498204174470287202009072020090700E0000080427003396900339692020090797799459CONTOUR NEXT BG STRIP (100)   CONTOUR NEXT BATONNET (100)   990000000000100030BURGESS        JAMES       BURGESS        JAMES       19431221M49282368    282368   100369         1000 007491000000000000000000001140000000000000000000000000000000008631007491000000000000000000001140000000000000000000000000000000008631000000000000000000000000000000000000000000 E2DMWH      00000074910007491000000000362600UDRST 1220000000000000                   Y202107014                       D4143     000099          99              DA  000000D4143 0301Q01 003396929003396929N001000001000       KC         76E2                Y   0000008  D4143          76000000                            
60000040000982600009826                                                                                                                                                                                                                                                                                                                                                                                                                                                                                                                                                                                                                                                                                                                                                       
20000080428WALMART PHARMACY #3099        1800 - 22ND AVE NE                                                    SWIFT CURRENT                      SKS9H0E53067783780E1WALMART   Y                                                                                                                                                                                                                                                                                                                                                                                                                                                                                                                                                                                             
4S498203848447501202009072020090700E0000080428003459600345962020090702310546TARO-RAMIPRIL 10MG CAP        TARO-RAMIPRIL 10MG CAP.       010000000000030030CHISHOLM       DONNA       CHISHOLM       DONNA       19600304F49344262    344262   1125134        1000 000429000000000000000000001140000000000000000000000000000000001569000429000000000000000000001140000000000000000000000000000314001255000000000000000000000000000000000000000000 E2DMWH      00000014300000429000000000243204FF CA 1220000000000000                   Y202106014                       75698     000001          01              DA  000000D4644 03  R44 003459676003459676R000300000300       KC         71E2                Y   0000008 G75698          71000000                            
4S498203849447502202009072020090700E0000080428003459600345962020090702313707TARO-ATORVASTATIN 10MG TAB    TARO-ATORVASTATIN 10MG CO.    010000000000030030CHISHOLM       DONNA       CHISHOLM       DONNA       19600304F49344262    344262   1125134        1000 000724000000000000000000001140000000000000000000000000000000001864000724000000000000000000001140000000000000000000000000000373001491000000000000000000000000000000000000000000 E2DMWH      00000024133000724000000000240608FF TA 1220000000000000                   Y202106014                       75698     000001          01              DA  000000D4644 03  R40 003459677003459677R000300000300       KC         71E2                Y   0000008 G75698          71000000                            
4S498203961447552202009072020090700E0000080428003459700345972020090702106272TRANDATE 100MG TAB            TRANDATE 100MG CO.            020000000000060030WALDNER        PAUL        WALDNER        TERESA      19801001F49471128    471128   302451         1011 002187000000000000000000001140000000000000000000000000000000003327002187000000000000000000001140000000000000000000000000000000003327000000000000000000000000000000000000000000 E2DMWH      00000036450002187000000000242400FF TA 1220000000000000                   Y202101014                       101805    000002          02              DA  000000D4644 03  R44 003459710003459710R000600000600       KC         71E2                Y   0000008 B101805         71000000                            
4S498204035447566202009072020090710E0000080428003459700345972020090702298589AVAMYS 27.5MCG/ACT NAS SPR    AVAMYS 27.5MCG/ACT VAP. NAS   000000000000120030ENTZ           MARGARET    ENTZ           MARGARET    19491218F49471128    471128   302437         1000 003255000000000000000000001140000000000000000000000000000000004395000000000000000000000000000000000000000000000000000000000000000000000000000000000000000000000000000000000000 E2CJHBCK    00000000000000000000000000520808F  NA 1220000000000000                   N000000004                       D4644     000000          00              DA  000000D4644 03  R82 003459727003459727N001200000000       KC         76E2C4HB                000000   D4644          76000000                            
4S498204222447585202009072020090700E0000080428003459700345972020090702246010APO-METOPROLOL 25MG TAB       APO-METOPROLOL 25MG CO.       010000000000060030CHISHOLM       DONNA       CHISHOLM       DONNA       19600304F49344262    344262   1125134        1000 000534000000000000000000001140000000000000000000000000000000001674000534000000000000000000001140000000000000000000000000000335001339000000000000000000000000000000000000000000 E2DMWH      00000008900000534000000000242400FF TA 1220000000000000                   Y202106014                       75698     000001          01              DA  000000D4644 03  R46 003459753003459753R000600000600       KC         71E2                Y   0000008 G75698          71000000                            
